{
  "contractName": "VendorRegistration",
  "abi": [
    {
      "inputs": [],
      "stateMutability": "nonpayable",
      "type": "constructor"
    },
    {
      "inputs": [],
      "name": "admin",
      "outputs": [
        {
          "internalType": "address",
          "name": "",
          "type": "address"
        }
      ],
      "stateMutability": "view",
      "type": "function",
      "constant": true
    },
    {
      "inputs": [
        {
          "internalType": "address",
          "name": "",
          "type": "address"
        }
      ],
      "name": "vendors",
      "outputs": [
        {
          "internalType": "string",
          "name": "name",
          "type": "string"
        },
        {
          "internalType": "string",
          "name": "serviceType",
          "type": "string"
        },
        {
          "internalType": "bool",
          "name": "isVerified",
          "type": "bool"
        },
        {
          "internalType": "uint256",
          "name": "idNegocio",
          "type": "uint256"
        }
      ],
      "stateMutability": "view",
      "type": "function",
      "constant": true
    },
    {
      "inputs": [
        {
          "internalType": "address",
          "name": "_vendorAddress",
          "type": "address"
        },
        {
          "internalType": "string",
          "name": "_name",
          "type": "string"
        },
        {
          "internalType": "string",
          "name": "_serviceType",
          "type": "string"
        },
        {
          "internalType": "uint256",
          "name": "_idNegocio",
          "type": "uint256"
        }
      ],
      "name": "registerVendor",
      "outputs": [],
      "stateMutability": "nonpayable",
      "type": "function"
    },
    {
      "inputs": [
        {
          "internalType": "address",
          "name": "_vendorAddress",
          "type": "address"
        }
      ],
      "name": "verifyVendor",
      "outputs": [],
      "stateMutability": "nonpayable",
      "type": "function"
    },
    {
      "inputs": [
        {
          "internalType": "address",
          "name": "_vendorAddress",
          "type": "address"
        }
      ],
      "name": "isVendorVerified",
      "outputs": [
        {
          "internalType": "bool",
          "name": "",
          "type": "bool"
        }
      ],
      "stateMutability": "view",
      "type": "function",
      "constant": true
    }
  ],
  "bytecode": "0x608060405234801561001057600080fd5b50336000806101000a81548173ffffffffffffffffffffffffffffffffffffffff021916908373ffffffffffffffffffffffffffffffffffffffff160217905550610d26806100606000396000f3fe608060405234801561001057600080fd5b50600436106100575760003560e01c806309ae78ad1461005c57806327e30c361461008c5780634f778658146100bf578063f851a440146100db578063fa5e5b8b146100f9575b600080fd5b61007660048036038101906100719190610803565b610115565b6040516100839190610a4c565b60405180910390f35b6100a660048036038101906100a19190610803565b6102ba565b6040516100b69493929190610a67565b60405180910390f35b6100d960048036038101906100d49190610803565b610407565b005b6100e361054c565b6040516100f09190610a31565b60405180910390f35b610113600480360381019061010e919061082c565b610570565b005b600080600160008473ffffffffffffffffffffffffffffffffffffffff1673ffffffffffffffffffffffffffffffffffffffff16815260200190815260200160002060405180608001604052908160008201805461017290610c21565b80601f016020809104026020016040519081016040528092919081815260200182805461019e90610c21565b80156101eb5780601f106101c0576101008083540402835291602001916101eb565b820191906000526020600020905b8154815290600101906020018083116101ce57829003601f168201915b5050505050815260200160018201805461020490610c21565b80601f016020809104026020016040519081016040528092919081815260200182805461023090610c21565b801561027d5780601f106102525761010080835404028352916020019161027d565b820191906000526020600020905b81548152906001019060200180831161026057829003601f168201915b505050505081526020016002820160009054906101000a900460ff1615151515815260200160038201548152505090508060400151915050919050565b60016020528060005260406000206000915090508060000180546102dd90610c21565b80601f016020809104026020016040519081016040528092919081815260200182805461030990610c21565b80156103565780601f1061032b57610100808354040283529160200191610356565b820191906000526020600020905b81548152906001019060200180831161033957829003601f168201915b50505050509080600101805461036b90610c21565b80601f016020809104026020016040519081016040528092919081815260200182805461039790610c21565b80156103e45780601f106103b9576101008083540402835291602001916103e4565b820191906000526020600020905b8154815290600101906020018083116103c757829003601f168201915b5050505050908060020160009054906101000a900460ff16908060030154905084565b60008054906101000a900473ffffffffffffffffffffffffffffffffffffffff1673ffffffffffffffffffffffffffffffffffffffff163373ffffffffffffffffffffffffffffffffffffffff1614610495576040517f08c379a000000000000000000000000000000000000000000000000000000000815260040161048c90610afa565b60405180910390fd5b6000600160008373ffffffffffffffffffffffffffffffffffffffff1673ffffffffffffffffffffffffffffffffffffffff168152602001908152602001600020905060008160000180546104e990610c21565b90501161052b576040517f08c379a000000000000000000000000000000000000000000000000000000000815260040161052290610ada565b60405180910390fd5b60018160020160006101000a81548160ff0219169083151502179055505050565b60008054906101000a900473ffffffffffffffffffffffffffffffffffffffff1681565b60008054906101000a900473ffffffffffffffffffffffffffffffffffffffff1673ffffffffffffffffffffffffffffffffffffffff163373ffffffffffffffffffffffffffffffffffffffff16146105fe576040517f08c379a00000000000000000000000000000000000000000000000000000000081526004016105f590610aba565b60405180910390fd5b604051806080016040528084815260200183815260200160001515815260200182815250600160008673ffffffffffffffffffffffffffffffffffffffff1673ffffffffffffffffffffffffffffffffffffffff168152602001908152602001600020600082015181600001908051906020019061067d9291906106ce565b50602082015181600101908051906020019061069a9291906106ce565b5060408201518160020160006101000a81548160ff0219169083151502179055506060820151816003015590505050505050565b8280546106da90610c21565b90600052602060002090601f0160209004810192826106fc5760008555610743565b82601f1061071557805160ff1916838001178555610743565b82800160010185558215610743579182015b82811115610742578251825591602001919060010190610727565b5b5090506107509190610754565b5090565b5b8082111561076d576000816000905550600101610755565b5090565b600061078461077f84610b4b565b610b1a565b90508281526020810184848401111561079c57600080fd5b6107a7848285610bdf565b509392505050565b6000813590506107be81610cc2565b92915050565b600082601f8301126107d557600080fd5b81356107e5848260208601610771565b91505092915050565b6000813590506107fd81610cd9565b92915050565b60006020828403121561081557600080fd5b6000610823848285016107af565b91505092915050565b6000806000806080858703121561084257600080fd5b6000610850878288016107af565b945050602085013567ffffffffffffffff81111561086d57600080fd5b610879878288016107c4565b935050604085013567ffffffffffffffff81111561089657600080fd5b6108a2878288016107c4565b92505060606108b3878288016107ee565b91505092959194509250565b6108c881610b97565b82525050565b6108d781610ba9565b82525050565b60006108e882610b7b565b6108f28185610b86565b9350610902818560208601610bee565b61090b81610cb1565b840191505092915050565b6000610923603083610b86565b91507f536f6c6f20656c2061646d696e6973747261646f72207075656465207265676960008301527f73747261722076656e6465646f726573000000000000000000000000000000006020830152604082019050919050565b6000610989601e83610b86565b91507f456c2076656e6465646f72206e6f2065737461207265676973747261646f00006000830152602082019050919050565b60006109c9603083610b86565b91507f536f6c6f20656c2061646d696e6973747261646f72207075656465207665726960008301527f66696361722076656e6465646f726573000000000000000000000000000000006020830152604082019050919050565b610a2b81610bd5565b82525050565b6000602082019050610a4660008301846108bf565b92915050565b6000602082019050610a6160008301846108ce565b92915050565b60006080820190508181036000830152610a8181876108dd565b90508181036020830152610a9581866108dd565b9050610aa460408301856108ce565b610ab16060830184610a22565b95945050505050565b60006020820190508181036000830152610ad381610916565b9050919050565b60006020820190508181036000830152610af38161097c565b9050919050565b60006020820190508181036000830152610b13816109bc565b9050919050565b6000604051905081810181811067ffffffffffffffff82111715610b4157610b40610c82565b5b8060405250919050565b600067ffffffffffffffff821115610b6657610b65610c82565b5b601f19601f8301169050602081019050919050565b600081519050919050565b600082825260208201905092915050565b6000610ba282610bb5565b9050919050565b60008115159050919050565b600073ffffffffffffffffffffffffffffffffffffffff82169050919050565b6000819050919050565b82818337600083830152505050565b60005b83811015610c0c578082015181840152602081019050610bf1565b83811115610c1b576000848401525b50505050565b60006002820490506001821680610c3957607f821691505b60208210811415610c4d57610c4c610c53565b5b50919050565b7f4e487b7100000000000000000000000000000000000000000000000000000000600052602260045260246000fd5b7f4e487b7100000000000000000000000000000000000000000000000000000000600052604160045260246000fd5b6000601f19601f8301169050919050565b610ccb81610b97565b8114610cd657600080fd5b50565b610ce281610bd5565b8114610ced57600080fd5b5056fea2646970667358221220774157096f9f9c592c92b856865690fc45216e1ed39d17f3e69c85a8c9d0a55064736f6c63430008000033",
  "immutableReferences": {},
  "source": "// SPDX-License-Identifier: MIT\r\npragma solidity ^0.8.0;\r\n\r\ncontract VendorRegistration {\r\n    address public admin;\r\n\r\n    struct Vendor {\r\n        string name;\r\n        string serviceType; \r\n        bool isVerified;\r\n        uint256 idNegocio;\r\n    }\r\n\r\n    mapping(address => Vendor) public vendors;\r\n\r\n    constructor() {\r\n        admin = msg.sender;  \r\n    }\r\n\r\nfunction registerVendor(address _vendorAddress, string memory _name, string memory _serviceType, uint256 _idNegocio) public {\r\n    require(msg.sender == admin, \"Solo el administrador puede registrar vendedores\");\r\n    vendors[_vendorAddress] = Vendor(_name, _serviceType, false, _idNegocio);  \r\n}\r\n\r\n\r\n   \r\n    function verifyVendor(address _vendorAddress) public {\r\n        require(msg.sender == admin, \"Solo el administrador puede verificar vendedores\");\r\n        Vendor storage vendor = vendors[_vendorAddress];\r\n        require(bytes(vendor.name).length > 0, \"El vendedor no esta registrado\"); \r\n        vendor.isVerified = true;  \r\n    }\r\n\r\n    \r\n    function isVendorVerified(address _vendorAddress) public view returns (bool) {\r\n        Vendor memory vendor = vendors[_vendorAddress];\r\n        return vendor.isVerified;\r\n    }\r\n}",
  "sourcePath": "C:\\Users\\Combu\\Documents\\PROGRAMACION\\HACKATON\\Blockchain\\tuguia\\contracts\\Vendedor.sol",
  "compiler": {
    "name": "solc",
    "version": "0.8.0+commit.c7dfd78e.Emscripten.clang"
  },
  "schemaVersion": "3.4.16",
  "updatedAt": "2024-10-12T07:46:21.819Z",
  "networkType": "ethereum",
  "devdoc": {
    "kind": "dev",
    "methods": {},
    "version": 1
  },
  "userdoc": {
    "kind": "user",
    "methods": {},
    "version": 1
  }
}